{
  "_format": "hh-sol-artifact-1",
  "contractName": "AUREREALESTATE",
  "sourceName": "contracts/AureRealEstate.sol",
  "abi": [
    {
      "inputs": [
        {
          "internalType": "string",
          "name": "_name",
          "type": "string"
        },
        {
          "internalType": "string",
          "name": "_symbol",
          "type": "string"
        },
        {
          "internalType": "uint256",
          "name": "_cost",
          "type": "uint256"
        },
        {
          "internalType": "string",
          "name": "_initialBaseURI",
          "type": "string"
        }
      ],
      "stateMutability": "nonpayable",
      "type": "constructor"
    },
    {
      "anonymous": false,
      "inputs": [
        {
          "indexed": true,
          "internalType": "address",
          "name": "owner",
          "type": "address"
        },
        {
          "indexed": true,
          "internalType": "address",
          "name": "approved",
          "type": "address"
        },
        {
          "indexed": true,
          "internalType": "uint256",
          "name": "tokenId",
          "type": "uint256"
        }
      ],
      "name": "Approval",
      "type": "event"
    },
    {
      "anonymous": false,
      "inputs": [
        {
          "indexed": true,
          "internalType": "address",
          "name": "owner",
          "type": "address"
        },
        {
          "indexed": true,
          "internalType": "address",
          "name": "operator",
          "type": "address"
        },
        {
          "indexed": false,
          "internalType": "bool",
          "name": "approved",
          "type": "bool"
        }
      ],
      "name": "ApprovalForAll",
      "type": "event"
    },
    {
      "anonymous": false,
      "inputs": [
        {
          "indexed": false,
          "internalType": "string",
          "name": "newBaseURI",
          "type": "string"
        }
      ],
      "name": "BaseURIUpdated",
      "type": "event"
    },
    {
      "anonymous": false,
      "inputs": [
        {
          "indexed": false,
          "internalType": "uint256",
          "name": "totalSupply",
          "type": "uint256"
        }
      ],
      "name": "MaxSupplyReached",
      "type": "event"
    },
    {
      "anonymous": false,
      "inputs": [
        {
          "indexed": true,
          "internalType": "address",
          "name": "previousOwner",
          "type": "address"
        },
        {
          "indexed": true,
          "internalType": "address",
          "name": "newOwner",
          "type": "address"
        }
      ],
      "name": "OwnershipTransferred",
      "type": "event"
    },
    {
      "anonymous": false,
      "inputs": [
        {
          "indexed": true,
          "internalType": "address",
          "name": "from",
          "type": "address"
        },
        {
          "indexed": true,
          "internalType": "address",
          "name": "to",
          "type": "address"
        },
        {
          "indexed": true,
          "internalType": "uint256",
          "name": "tokenId",
          "type": "uint256"
        }
      ],
      "name": "Transfer",
      "type": "event"
    },
    {
      "inputs": [
        {
          "internalType": "address",
          "name": "to",
          "type": "address"
        },
        {
          "internalType": "uint256",
          "name": "tokenId",
          "type": "uint256"
        }
      ],
      "name": "approve",
      "outputs": [],
      "stateMutability": "nonpayable",
      "type": "function"
    },
    {
      "inputs": [
        {
          "internalType": "address",
          "name": "owner",
          "type": "address"
        }
      ],
      "name": "balanceOf",
      "outputs": [
        {
          "internalType": "uint256",
          "name": "",
          "type": "uint256"
        }
      ],
      "stateMutability": "view",
      "type": "function"
    },
    {
      "inputs": [],
      "name": "baseURI",
      "outputs": [
        {
          "internalType": "string",
          "name": "",
          "type": "string"
        }
      ],
      "stateMutability": "view",
      "type": "function"
    },
    {
      "inputs": [],
      "name": "cost",
      "outputs": [
        {
          "internalType": "uint256",
          "name": "",
          "type": "uint256"
        }
      ],
      "stateMutability": "view",
      "type": "function"
    },
    {
      "inputs": [
        {
          "internalType": "uint256",
          "name": "tokenId",
          "type": "uint256"
        }
      ],
      "name": "getApproved",
      "outputs": [
        {
          "internalType": "address",
          "name": "",
          "type": "address"
        }
      ],
      "stateMutability": "view",
      "type": "function"
    },
    {
      "inputs": [
        {
          "internalType": "address",
          "name": "owner",
          "type": "address"
        },
        {
          "internalType": "address",
          "name": "operator",
          "type": "address"
        }
      ],
      "name": "isApprovedForAll",
      "outputs": [
        {
          "internalType": "bool",
          "name": "",
          "type": "bool"
        }
      ],
      "stateMutability": "view",
      "type": "function"
    },
    {
      "inputs": [],
      "name": "maxSupply",
      "outputs": [
        {
          "internalType": "uint256",
          "name": "",
          "type": "uint256"
        }
      ],
      "stateMutability": "view",
      "type": "function"
    },
    {
      "inputs": [
        {
          "internalType": "string",
          "name": "_tokenURI",
          "type": "string"
        }
      ],
      "name": "mint",
      "outputs": [],
      "stateMutability": "payable",
      "type": "function"
    },
    {
      "inputs": [
        {
          "internalType": "uint256",
          "name": "tokenId",
          "type": "uint256"
        },
        {
          "internalType": "string",
          "name": "_tokenURI",
          "type": "string"
        }
      ],
      "name": "mintSpecific",
      "outputs": [],
      "stateMutability": "payable",
      "type": "function"
    },
    {
      "inputs": [],
      "name": "name",
      "outputs": [
        {
          "internalType": "string",
          "name": "",
          "type": "string"
        }
      ],
      "stateMutability": "view",
      "type": "function"
    },
    {
      "inputs": [],
      "name": "owner",
      "outputs": [
        {
          "internalType": "address",
          "name": "",
          "type": "address"
        }
      ],
      "stateMutability": "view",
      "type": "function"
    },
    {
      "inputs": [
        {
          "internalType": "uint256",
          "name": "tokenId",
          "type": "uint256"
        }
      ],
      "name": "ownerOf",
      "outputs": [
        {
          "internalType": "address",
          "name": "",
          "type": "address"
        }
      ],
      "stateMutability": "view",
      "type": "function"
    },
    {
      "inputs": [
        {
          "internalType": "address",
          "name": "from",
          "type": "address"
        },
        {
          "internalType": "address",
          "name": "to",
          "type": "address"
        },
        {
          "internalType": "uint256",
          "name": "tokenId",
          "type": "uint256"
        }
      ],
      "name": "safeTransferFrom",
      "outputs": [],
      "stateMutability": "nonpayable",
      "type": "function"
    },
    {
      "inputs": [
        {
          "internalType": "address",
          "name": "from",
          "type": "address"
        },
        {
          "internalType": "address",
          "name": "to",
          "type": "address"
        },
        {
          "internalType": "uint256",
          "name": "tokenId",
          "type": "uint256"
        },
        {
          "internalType": "bytes",
          "name": "data",
          "type": "bytes"
        }
      ],
      "name": "safeTransferFrom",
      "outputs": [],
      "stateMutability": "nonpayable",
      "type": "function"
    },
    {
      "inputs": [
        {
          "internalType": "address",
          "name": "operator",
          "type": "address"
        },
        {
          "internalType": "bool",
          "name": "approved",
          "type": "bool"
        }
      ],
      "name": "setApprovalForAll",
      "outputs": [],
      "stateMutability": "nonpayable",
      "type": "function"
    },
    {
      "inputs": [
        {
          "internalType": "string",
          "name": "newBaseURI",
          "type": "string"
        }
      ],
      "name": "setBaseURI",
      "outputs": [],
      "stateMutability": "nonpayable",
      "type": "function"
    },
    {
      "inputs": [
        {
          "internalType": "bytes4",
          "name": "interfaceId",
          "type": "bytes4"
        }
      ],
      "name": "supportsInterface",
      "outputs": [
        {
          "internalType": "bool",
          "name": "",
          "type": "bool"
        }
      ],
      "stateMutability": "view",
      "type": "function"
    },
    {
      "inputs": [],
      "name": "symbol",
      "outputs": [
        {
          "internalType": "string",
          "name": "",
          "type": "string"
        }
      ],
      "stateMutability": "view",
      "type": "function"
    },
    {
      "inputs": [
        {
          "internalType": "uint256",
          "name": "index",
          "type": "uint256"
        }
      ],
      "name": "tokenByIndex",
      "outputs": [
        {
          "internalType": "uint256",
          "name": "",
          "type": "uint256"
        }
      ],
      "stateMutability": "view",
      "type": "function"
    },
    {
      "inputs": [
        {
          "internalType": "address",
          "name": "_owner",
          "type": "address"
        },
        {
          "internalType": "uint256",
          "name": "index",
          "type": "uint256"
        }
      ],
      "name": "tokenOfOwnerByIndex",
      "outputs": [
        {
          "internalType": "uint256",
          "name": "",
          "type": "uint256"
        }
      ],
      "stateMutability": "view",
      "type": "function"
    },
    {
      "inputs": [
        {
          "internalType": "uint256",
          "name": "tokenId",
          "type": "uint256"
        }
      ],
      "name": "tokenURI",
      "outputs": [
        {
          "internalType": "string",
          "name": "",
          "type": "string"
        }
      ],
      "stateMutability": "view",
      "type": "function"
    },
    {
      "inputs": [],
      "name": "totalSupply",
      "outputs": [
        {
          "internalType": "uint256",
          "name": "",
          "type": "uint256"
        }
      ],
      "stateMutability": "view",
      "type": "function"
    },
    {
      "inputs": [
        {
          "internalType": "address",
          "name": "from",
          "type": "address"
        },
        {
          "internalType": "address",
          "name": "to",
          "type": "address"
        },
        {
          "internalType": "uint256",
          "name": "tokenId",
          "type": "uint256"
        }
      ],
      "name": "transferFrom",
      "outputs": [],
      "stateMutability": "nonpayable",
      "type": "function"
    },
    {
      "inputs": [
        {
          "internalType": "address",
          "name": "newOwner",
          "type": "address"
        }
      ],
      "name": "transferOwnership",
      "outputs": [],
      "stateMutability": "nonpayable",
      "type": "function"
    },
    {
      "inputs": [],
      "name": "withdraw",
      "outputs": [],
      "stateMutability": "nonpayable",
      "type": "function"
    }
  ],
  "bytecode": "0x60806040526064600f553480156200001657600080fd5b506040516200241a3803806200241a833981016040819052620000399162000155565b838360006200004983826200027f565b5060016200005882826200027f565b50506001600b5550600d80546001600160a01b03191633179055600e82905560106200008582826200027f565b50505050506200034b565b634e487b7160e01b600052604160045260246000fd5b600082601f830112620000b857600080fd5b81516001600160401b0380821115620000d557620000d562000090565b604051601f8301601f19908116603f0116810190828211818310171562000100576200010062000090565b816040528381526020925086838588010111156200011d57600080fd5b600091505b8382101562000141578582018301518183018401529082019062000122565b600093810190920192909252949350505050565b600080600080608085870312156200016c57600080fd5b84516001600160401b03808211156200018457600080fd5b6200019288838901620000a6565b95506020870151915080821115620001a957600080fd5b620001b788838901620000a6565b9450604087015193506060870151915080821115620001d557600080fd5b50620001e487828801620000a6565b91505092959194509250565b600181811c908216806200020557607f821691505b6020821081036200022657634e487b7160e01b600052602260045260246000fd5b50919050565b601f8211156200027a57600081815260208120601f850160051c81016020861015620002555750805b601f850160051c820191505b81811015620002765782815560010162000261565b5050505b505050565b81516001600160401b038111156200029b576200029b62000090565b620002b381620002ac8454620001f0565b846200022c565b602080601f831160018114620002eb5760008415620002d25750858301515b600019600386901b1c1916600185901b17855562000276565b600085815260208120601f198616915b828110156200031c57888601518255948401946001909101908401620002fb565b50858210156200033b5787850151600019600388901b60f8161c191681555b5050505050600190811b01905550565b6120bf806200035b6000396000f3fe6080604052600436106101665760003560e01c80636352211e116100d1578063a22cb4651161008a578063d5abeb0111610064578063d5abeb0114610407578063d85d3d271461041d578063e985e9c514610430578063f2fde38b1461047957600080fd5b8063a22cb465146103a7578063b88d4fde146103c7578063c87b56dd146103e757600080fd5b80636352211e1461030a5780636c0360eb1461032a5780636c5429271461033f57806370a08231146103525780638da5cb5b1461037257806395d89b411461039257600080fd5b806323b872dd1161012357806323b872dd146102555780632f745c59146102755780633ccfd60b1461029557806342842e0e146102aa5780634f6ccce7146102ca57806355f804b3146102ea57600080fd5b806301ffc9a71461016b57806306fdde03146101a0578063081812fc146101c2578063095ea7b3146101fa57806313faede61461021c57806318160ddd14610240575b600080fd5b34801561017757600080fd5b5061018b61018636600461192b565b610499565b60405190151581526020015b60405180910390f35b3480156101ac57600080fd5b506101b56104aa565b6040516101979190611998565b3480156101ce57600080fd5b506101e26101dd3660046119ab565b61053c565b6040516001600160a01b039091168152602001610197565b34801561020657600080fd5b5061021a6102153660046119e0565b610563565b005b34801561022857600080fd5b50610232600e5481565b604051908152602001610197565b34801561024c57600080fd5b5061023261067d565b34801561026157600080fd5b5061021a610270366004611a0a565b61068d565b34801561028157600080fd5b506102326102903660046119e0565b6106be565b3480156102a157600080fd5b5061021a6106d1565b3480156102b657600080fd5b5061021a6102c5366004611a0a565b6107f1565b3480156102d657600080fd5b506102326102e53660046119ab565b61080c565b3480156102f657600080fd5b5061021a610305366004611af2565b610817565b34801561031657600080fd5b506101e26103253660046119ab565b610888565b34801561033657600080fd5b506101b56108bd565b61021a61034d366004611b27565b6108c7565b34801561035e57600080fd5b5061023261036d366004611b6e565b610a80565b34801561037e57600080fd5b50600d546101e2906001600160a01b031681565b34801561039e57600080fd5b506101b5610b06565b3480156103b357600080fd5b5061021a6103c2366004611b89565b610b15565b3480156103d357600080fd5b5061021a6103e2366004611bc5565b610b20565b3480156103f357600080fd5b506101b56104023660046119ab565b610b58565b34801561041357600080fd5b50610232600f5481565b61021a61042b366004611af2565b610bc1565b34801561043c57600080fd5b5061018b61044b366004611c41565b6001600160a01b03918216600090815260056020908152604080832093909416825291909152205460ff1690565b34801561048557600080fd5b5061021a610494366004611b6e565b610c8a565b60006104a482610d66565b92915050565b6060600080546104b990611c74565b80601f01602080910402602001604051908101604052809291908181526020018280546104e590611c74565b80156105325780601f1061050757610100808354040283529160200191610532565b820191906000526020600020905b81548152906001019060200180831161051557829003601f168201915b5050505050905090565b600061054782610d8b565b506000908152600460205260409020546001600160a01b031690565b600061056e82610888565b9050806001600160a01b0316836001600160a01b0316036105e05760405162461bcd60e51b815260206004820152602160248201527f4552433732313a20617070726f76616c20746f2063757272656e74206f776e656044820152603960f91b60648201526084015b60405180910390fd5b336001600160a01b03821614806105fc57506105fc813361044b565b61066e5760405162461bcd60e51b815260206004820152603e60248201527f4552433732313a20617070726f76652063616c6c6572206973206e6f7420746f60448201527f6b656e206f776e6572206e6f7220617070726f76656420666f7220616c6c000060648201526084016105d7565b6106788383610dc2565b505050565b6000610688600c5490565b905090565b6106973382610e30565b6106b35760405162461bcd60e51b81526004016105d790611cae565b610678838383610eaf565b60006106ca8383611056565b9392505050565b600d546001600160a01b031633146106fb5760405162461bcd60e51b81526004016105d790611cfc565b6002600b540361074d5760405162461bcd60e51b815260206004820152601f60248201527f5265656e7472616e637947756172643a207265656e7472616e742063616c6c0060448201526064016105d7565b6002600b55600d546040516000916001600160a01b03169047908381818185875af1925050503d806000811461079f576040519150601f19603f3d011682016040523d82523d6000602084013e6107a4565b606091505b50509050806107e95760405162461bcd60e51b815260206004820152601160248201527015da5d1a191c985dd85b0819985a5b1959607a1b60448201526064016105d7565b506001600b55565b61067883838360405180602001604052806000815250610b20565b60006104a4826110ec565b600d546001600160a01b031633146108415760405162461bcd60e51b81526004016105d790611cfc565b601061084d8282611d90565b507f6741b2fc379fad678116fe3d4d4b9a1a184ab53ba36b86ad0fa66340b1ab41ad8160405161087d9190611998565b60405180910390a150565b6000818152600260205260408120546001600160a01b0316806104a45760405162461bcd60e51b81526004016105d790611e50565b606061068861117f565b600e543410156109195760405162461bcd60e51b815260206004820152601a60248201527f496e73756666696369656e742066756e647320746f206d696e7400000000000060448201526064016105d7565b600f54600c54106109615760405162461bcd60e51b815260206004820152601260248201527113585e081cdd5c1c1b1e481c995858da195960721b60448201526064016105d7565b6000828152600260205260409020546001600160a01b0316156109bd5760405162461bcd60e51b8152602060048201526014602482015273151bdad95b88185b1c9958591e481b5a5b9d195960621b60448201526064016105d7565b6000821180156109cf5750600f548211155b610a135760405162461bcd60e51b8152602060048201526015602482015274546f6b656e204944206f7574206f662072616e676560581b60448201526064016105d7565b610a21600c80546001019055565b610a2b338361118e565b610a3582826112dc565b600f54600c5403610a7c577ff9f8491526cc7cbcafba2f8dd5c03c2dfe0b847a44e6eefd30c87fc1b744ea3a610a6a600c5490565b60405190815260200160405180910390a15b5050565b60006001600160a01b038216610aea5760405162461bcd60e51b815260206004820152602960248201527f4552433732313a2061646472657373207a65726f206973206e6f7420612076616044820152683634b21037bbb732b960b91b60648201526084016105d7565b506001600160a01b031660009081526003602052604090205490565b6060600180546104b990611c74565b610a7c33838361136f565b610b2a3383610e30565b610b465760405162461bcd60e51b81526004016105d790611cae565b610b528484848461143d565b50505050565b6000818152600260205260409020546060906001600160a01b0316610b8f5760405162461bcd60e51b81526004016105d790611e50565b6010610b9a83611470565b604051602001610bab929190611e87565b6040516020818303038152906040529050919050565b600e54341015610c135760405162461bcd60e51b815260206004820152601a60248201527f496e73756666696369656e742066756e647320746f206d696e7400000000000060448201526064016105d7565b600f54600c5410610c5b5760405162461bcd60e51b815260206004820152601260248201527113585e081cdd5c1c1b1e481c995858da195960721b60448201526064016105d7565b610c69600c80546001019055565b6000610c74600c5490565b9050610c80338261118e565b610a3581836112dc565b600d546001600160a01b03163314610cb45760405162461bcd60e51b81526004016105d790611cfc565b6001600160a01b038116610d0a5760405162461bcd60e51b815260206004820152601d60248201527f4e6577206f776e657220697320746865207a65726f206164647265737300000060448201526064016105d7565b600d546040516001600160a01b038084169216907f8be0079c531659141344cd1fd0a4f28419497f9722a3daafe3b4186f6b6457e090600090a3600d80546001600160a01b0319166001600160a01b0392909216919091179055565b60006001600160e01b0319821663780e9d6360e01b14806104a457506104a482611571565b6000818152600260205260409020546001600160a01b0316610dbf5760405162461bcd60e51b81526004016105d790611e50565b50565b600081815260046020526040902080546001600160a01b0319166001600160a01b0384169081179091558190610df782610888565b6001600160a01b03167f8c5be1e5ebec7d5bd14f71427d1e84f3dd0314c0f7b2291e5b200ac8c7c3b92560405160405180910390a45050565b600080610e3c83610888565b9050806001600160a01b0316846001600160a01b03161480610e8357506001600160a01b0380821660009081526005602090815260408083209388168352929052205460ff165b80610ea75750836001600160a01b0316610e9c8461053c565b6001600160a01b0316145b949350505050565b826001600160a01b0316610ec282610888565b6001600160a01b031614610f265760405162461bcd60e51b815260206004820152602560248201527f4552433732313a207472616e736665722066726f6d20696e636f72726563742060448201526437bbb732b960d91b60648201526084016105d7565b6001600160a01b038216610f885760405162461bcd60e51b8152602060048201526024808201527f4552433732313a207472616e7366657220746f20746865207a65726f206164646044820152637265737360e01b60648201526084016105d7565b610f938383836115c1565b610f9e600082610dc2565b6001600160a01b0383166000908152600360205260408120805460019290610fc7908490611f34565b90915550506001600160a01b0382166000908152600360205260408120805460019290610ff5908490611f47565b909155505060008181526002602052604080822080546001600160a01b0319166001600160a01b0386811691821790925591518493918716917fddf252ad1be2c89b69c2b068fc378daa952ba7f163c4a11628f55a4df523b3ef91a4505050565b600061106183610a80565b82106110c35760405162461bcd60e51b815260206004820152602b60248201527f455243373231456e756d657261626c653a206f776e657220696e646578206f7560448201526a74206f6620626f756e647360a81b60648201526084016105d7565b506001600160a01b03919091166000908152600760209081526040808320938352929052205490565b60006110f760095490565b821061115a5760405162461bcd60e51b815260206004820152602c60248201527f455243373231456e756d657261626c653a20676c6f62616c20696e646578206f60448201526b7574206f6620626f756e647360a01b60648201526084016105d7565b6009828154811061116d5761116d611f5a565b90600052602060002001549050919050565b6060601080546104b990611c74565b6001600160a01b0382166111e45760405162461bcd60e51b815260206004820181905260248201527f4552433732313a206d696e7420746f20746865207a65726f206164647265737360448201526064016105d7565b6000818152600260205260409020546001600160a01b0316156112495760405162461bcd60e51b815260206004820152601c60248201527f4552433732313a20746f6b656e20616c7265616479206d696e7465640000000060448201526064016105d7565b611255600083836115c1565b6001600160a01b038216600090815260036020526040812080546001929061127e908490611f47565b909155505060008181526002602052604080822080546001600160a01b0319166001600160a01b03861690811790915590518392907fddf252ad1be2c89b69c2b068fc378daa952ba7f163c4a11628f55a4df523b3ef908290a45050565b6000828152600260205260409020546001600160a01b03166113575760405162461bcd60e51b815260206004820152602e60248201527f45524337323155524953746f726167653a2055524920736574206f66206e6f6e60448201526d32bc34b9ba32b73a103a37b5b2b760911b60648201526084016105d7565b60008281526006602052604090206106788282611d90565b816001600160a01b0316836001600160a01b0316036113d05760405162461bcd60e51b815260206004820152601960248201527f4552433732313a20617070726f766520746f2063616c6c65720000000000000060448201526064016105d7565b6001600160a01b03838116600081815260056020908152604080832094871680845294825291829020805460ff191686151590811790915591519182527f17307eab39ab6107e8899845ad3d59bd9653f200f220920489ca2b5937696c31910160405180910390a3505050565b611448848484610eaf565b611454848484846115cc565b610b525760405162461bcd60e51b81526004016105d790611f70565b6060816000036114975750506040805180820190915260018152600360fc1b602082015290565b8160005b81156114c157806114ab81611fc2565b91506114ba9050600a83611ff1565b915061149b565b60008167ffffffffffffffff8111156114dc576114dc611a46565b6040519080825280601f01601f191660200182016040528015611506576020820181803683370190505b5090505b8415610ea75761151b600183611f34565b9150611528600a86612005565b611533906030611f47565b60f81b81838151811061154857611548611f5a565b60200101906001600160f81b031916908160001a90535061156a600a86611ff1565b945061150a565b60006001600160e01b031982166380ac58cd60e01b14806115a257506001600160e01b03198216635b5e139f60e01b145b806104a457506301ffc9a760e01b6001600160e01b03198316146104a4565b6106788383836116cd565b60006001600160a01b0384163b156116c257604051630a85bd0160e11b81526001600160a01b0385169063150b7a0290611610903390899088908890600401612019565b6020604051808303816000875af192505050801561164b575060408051601f3d908101601f1916820190925261164891810190612056565b60015b6116a8573d808015611679576040519150601f19603f3d011682016040523d82523d6000602084013e61167e565b606091505b5080516000036116a05760405162461bcd60e51b81526004016105d790611f70565b805181602001fd5b6001600160e01b031916630a85bd0160e11b149050610ea7565b506001949350505050565b6001600160a01b0383166117285761172381600980546000838152600a60205260408120829055600182018355919091527f6e1540171b6c0c960b71a7020d9f60077f6af931a8bbf590da0223dacf75c7af0155565b61174b565b816001600160a01b0316836001600160a01b03161461174b5761174b8382611785565b6001600160a01b0382166117625761067881611822565b826001600160a01b0316826001600160a01b0316146106785761067882826118d1565b6000600161179284610a80565b61179c9190611f34565b6000838152600860205260409020549091508082146117ef576001600160a01b03841660009081526007602090815260408083208584528252808320548484528184208190558352600890915290208190555b5060009182526008602090815260408084208490556001600160a01b039094168352600781528383209183525290812055565b60095460009061183490600190611f34565b6000838152600a60205260408120546009805493945090928490811061185c5761185c611f5a565b90600052602060002001549050806009838154811061187d5761187d611f5a565b6000918252602080832090910192909255828152600a909152604080822084905585825281205560098054806118b5576118b5612073565b6001900381819060005260206000200160009055905550505050565b60006118dc83610a80565b6001600160a01b039093166000908152600760209081526040808320868452825280832085905593825260089052919091209190915550565b6001600160e01b031981168114610dbf57600080fd5b60006020828403121561193d57600080fd5b81356106ca81611915565b60005b8381101561196357818101518382015260200161194b565b50506000910152565b60008151808452611984816020860160208601611948565b601f01601f19169290920160200192915050565b6020815260006106ca602083018461196c565b6000602082840312156119bd57600080fd5b5035919050565b80356001600160a01b03811681146119db57600080fd5b919050565b600080604083850312156119f357600080fd5b6119fc836119c4565b946020939093013593505050565b600080600060608486031215611a1f57600080fd5b611a28846119c4565b9250611a36602085016119c4565b9150604084013590509250925092565b634e487b7160e01b600052604160045260246000fd5b600067ffffffffffffffff80841115611a7757611a77611a46565b604051601f8501601f19908116603f01168101908282118183101715611a9f57611a9f611a46565b81604052809350858152868686011115611ab857600080fd5b858560208301376000602087830101525050509392505050565b600082601f830112611ae357600080fd5b6106ca83833560208501611a5c565b600060208284031215611b0457600080fd5b813567ffffffffffffffff811115611b1b57600080fd5b610ea784828501611ad2565b60008060408385031215611b3a57600080fd5b82359150602083013567ffffffffffffffff811115611b5857600080fd5b611b6485828601611ad2565b9150509250929050565b600060208284031215611b8057600080fd5b6106ca826119c4565b60008060408385031215611b9c57600080fd5b611ba5836119c4565b915060208301358015158114611bba57600080fd5b809150509250929050565b60008060008060808587031215611bdb57600080fd5b611be4856119c4565b9350611bf2602086016119c4565b925060408501359150606085013567ffffffffffffffff811115611c1557600080fd5b8501601f81018713611c2657600080fd5b611c3587823560208401611a5c565b91505092959194509250565b60008060408385031215611c5457600080fd5b611c5d836119c4565b9150611c6b602084016119c4565b90509250929050565b600181811c90821680611c8857607f821691505b602082108103611ca857634e487b7160e01b600052602260045260246000fd5b50919050565b6020808252602e908201527f4552433732313a2063616c6c6572206973206e6f7420746f6b656e206f776e6560408201526d1c881b9bdc88185c1c1c9bdd995960921b606082015260800190565b60208082526026908201527f4f6e6c7920746865206f776e65722063616e20706572666f726d20746869732060408201526530b1ba34b7b760d11b606082015260800190565b601f82111561067857600081815260208120601f850160051c81016020861015611d695750805b601f850160051c820191505b81811015611d8857828155600101611d75565b505050505050565b815167ffffffffffffffff811115611daa57611daa611a46565b611dbe81611db88454611c74565b84611d42565b602080601f831160018114611df35760008415611ddb5750858301515b600019600386901b1c1916600185901b178555611d88565b600085815260208120601f198616915b82811015611e2257888601518255948401946001909101908401611e03565b5085821015611e405787850151600019600388901b60f8161c191681555b5050505050600190811b01905550565b60208082526018908201527f4552433732313a20696e76616c696420746f6b656e2049440000000000000000604082015260600190565b6000808454611e9581611c74565b60018281168015611ead5760018114611ec257611ef1565b60ff1984168752821515830287019450611ef1565b8860005260208060002060005b85811015611ee85781548a820152908401908201611ecf565b50505082870194505b505050508351611f05818360208801611948565b64173539b7b760d91b9101908152600501949350505050565b634e487b7160e01b600052601160045260246000fd5b818103818111156104a4576104a4611f1e565b808201808211156104a4576104a4611f1e565b634e487b7160e01b600052603260045260246000fd5b60208082526032908201527f4552433732313a207472616e7366657220746f206e6f6e20455243373231526560408201527131b2b4bb32b91034b6b83632b6b2b73a32b960711b606082015260800190565b600060018201611fd457611fd4611f1e565b5060010190565b634e487b7160e01b600052601260045260246000fd5b60008261200057612000611fdb565b500490565b60008261201457612014611fdb565b500690565b6001600160a01b038581168252841660208201526040810183905260806060820181905260009061204c9083018461196c565b9695505050505050565b60006020828403121561206857600080fd5b81516106ca81611915565b634e487b7160e01b600052603160045260246000fdfea264697066735822122011d217ce1066e1baab7ba2dec9f4ce8c5a69e7465c29738384dd97459ae68e1064736f6c63430008110033",
  "linkReferences": {},
  "deployedLinkReferences": {}
}