{
  "_format": "hh-sol-artifact-1",
  "contractName": "Trusteeship",
  "sourceName": "contracts/Trusteeship.sol",
  "abi": [
    {
      "inputs": [
        {
          "internalType": "uint256",
          "name": "_feePercent",
          "type": "uint256"
        },
        {
          "internalType": "address",
          "name": "_allowedNFT",
          "type": "address"
        }
      ],
      "stateMutability": "nonpayable",
      "type": "constructor"
    },
    {
      "anonymous": false,
      "inputs": [
        {
          "indexed": false,
          "internalType": "uint256",
          "name": "itemId",
          "type": "uint256"
        },
        {
          "indexed": true,
          "internalType": "address",
          "name": "nft",
          "type": "address"
        },
        {
          "indexed": false,
          "internalType": "uint256",
          "name": "tokenId",
          "type": "uint256"
        },
        {
          "indexed": false,
          "internalType": "uint256",
          "name": "price",
          "type": "uint256"
        },
        {
          "indexed": true,
          "internalType": "address",
          "name": "seller",
          "type": "address"
        },
        {
          "indexed": true,
          "internalType": "address",
          "name": "buyer",
          "type": "address"
        },
        {
          "indexed": false,
          "internalType": "uint256",
          "name": "totalPrice",
          "type": "uint256"
        },
        {
          "indexed": false,
          "internalType": "uint256",
          "name": "timestamp",
          "type": "uint256"
        }
      ],
      "name": "Bought",
      "type": "event"
    },
    {
      "anonymous": false,
      "inputs": [
        {
          "indexed": false,
          "internalType": "uint256",
          "name": "itemId",
          "type": "uint256"
        },
        {
          "indexed": true,
          "internalType": "address",
          "name": "nft",
          "type": "address"
        },
        {
          "indexed": false,
          "internalType": "uint256",
          "name": "tokenId",
          "type": "uint256"
        },
        {
          "indexed": false,
          "internalType": "uint256",
          "name": "price",
          "type": "uint256"
        },
        {
          "indexed": true,
          "internalType": "address",
          "name": "seller",
          "type": "address"
        },
        {
          "indexed": false,
          "internalType": "uint256",
          "name": "timestamp",
          "type": "uint256"
        }
      ],
      "name": "Offered",
      "type": "event"
    },
    {
      "anonymous": false,
      "inputs": [
        {
          "indexed": false,
          "internalType": "uint256",
          "name": "itemId",
          "type": "uint256"
        },
        {
          "indexed": false,
          "internalType": "uint256",
          "name": "oldPrice",
          "type": "uint256"
        },
        {
          "indexed": false,
          "internalType": "uint256",
          "name": "newPrice",
          "type": "uint256"
        },
        {
          "indexed": true,
          "internalType": "address",
          "name": "seller",
          "type": "address"
        },
        {
          "indexed": false,
          "internalType": "uint256",
          "name": "timestamp",
          "type": "uint256"
        }
      ],
      "name": "PriceUpdated",
      "type": "event"
    },
    {
      "anonymous": false,
      "inputs": [
        {
          "indexed": true,
          "internalType": "address",
          "name": "buyer",
          "type": "address"
        },
        {
          "indexed": false,
          "internalType": "uint256",
          "name": "amount",
          "type": "uint256"
        }
      ],
      "name": "Refunded",
      "type": "event"
    },
    {
      "anonymous": false,
      "inputs": [
        {
          "indexed": false,
          "internalType": "uint256",
          "name": "itemId",
          "type": "uint256"
        },
        {
          "indexed": true,
          "internalType": "address",
          "name": "nft",
          "type": "address"
        },
        {
          "indexed": false,
          "internalType": "uint256",
          "name": "tokenId",
          "type": "uint256"
        },
        {
          "indexed": true,
          "internalType": "address",
          "name": "seller",
          "type": "address"
        },
        {
          "indexed": false,
          "internalType": "uint256",
          "name": "timestamp",
          "type": "uint256"
        }
      ],
      "name": "Withdrawn",
      "type": "event"
    },
    {
      "inputs": [],
      "name": "allowedNFT",
      "outputs": [
        {
          "internalType": "address",
          "name": "",
          "type": "address"
        }
      ],
      "stateMutability": "view",
      "type": "function"
    },
    {
      "inputs": [],
      "name": "feeAccount",
      "outputs": [
        {
          "internalType": "address payable",
          "name": "",
          "type": "address"
        }
      ],
      "stateMutability": "view",
      "type": "function"
    },
    {
      "inputs": [],
      "name": "feePercent",
      "outputs": [
        {
          "internalType": "uint256",
          "name": "",
          "type": "uint256"
        }
      ],
      "stateMutability": "view",
      "type": "function"
    },
    {
      "inputs": [
        {
          "internalType": "uint256",
          "name": "_itemId",
          "type": "uint256"
        }
      ],
      "name": "getTotalPrice",
      "outputs": [
        {
          "internalType": "uint256",
          "name": "",
          "type": "uint256"
        }
      ],
      "stateMutability": "view",
      "type": "function"
    },
    {
      "inputs": [],
      "name": "itemCount",
      "outputs": [
        {
          "internalType": "uint256",
          "name": "",
          "type": "uint256"
        }
      ],
      "stateMutability": "view",
      "type": "function"
    },
    {
      "inputs": [
        {
          "internalType": "uint256",
          "name": "",
          "type": "uint256"
        }
      ],
      "name": "items",
      "outputs": [
        {
          "internalType": "uint256",
          "name": "itemId",
          "type": "uint256"
        },
        {
          "internalType": "contract IERC721",
          "name": "nft",
          "type": "address"
        },
        {
          "internalType": "uint256",
          "name": "tokenId",
          "type": "uint256"
        },
        {
          "internalType": "uint256",
          "name": "price",
          "type": "uint256"
        },
        {
          "internalType": "address payable",
          "name": "seller",
          "type": "address"
        },
        {
          "internalType": "bool",
          "name": "sold",
          "type": "bool"
        }
      ],
      "stateMutability": "view",
      "type": "function"
    },
    {
      "inputs": [
        {
          "internalType": "contract IERC721",
          "name": "_nft",
          "type": "address"
        },
        {
          "internalType": "uint256",
          "name": "_tokenId",
          "type": "uint256"
        },
        {
          "internalType": "uint256",
          "name": "_price",
          "type": "uint256"
        }
      ],
      "name": "listItem",
      "outputs": [],
      "stateMutability": "nonpayable",
      "type": "function"
    },
    {
      "inputs": [
        {
          "internalType": "uint256",
          "name": "_itemId",
          "type": "uint256"
        }
      ],
      "name": "purchaseItem",
      "outputs": [],
      "stateMutability": "payable",
      "type": "function"
    },
    {
      "inputs": [
        {
          "internalType": "uint256",
          "name": "_itemId",
          "type": "uint256"
        },
        {
          "internalType": "uint256",
          "name": "_newPrice",
          "type": "uint256"
        }
      ],
      "name": "updateItemPrice",
      "outputs": [],
      "stateMutability": "nonpayable",
      "type": "function"
    },
    {
      "inputs": [
        {
          "internalType": "uint256",
          "name": "_itemId",
          "type": "uint256"
        }
      ],
      "name": "withdrawItem",
      "outputs": [],
      "stateMutability": "nonpayable",
      "type": "function"
    }
  ],
  "bytecode": "0x60e060405234801561001057600080fd5b506040516112e33803806112e383398101604081905261002f916100bd565b60016000556001600160a01b03811661008e5760405162461bcd60e51b815260206004820152601c60248201527f496e76616c6964204e465420636f6e7472616374206164647265737300000000604482015260640160405180910390fd5b735cfd8509d1c8dc26bb567ff14d9ab1e01f5d5a3260805260a0919091526001600160a01b031660c0526100fa565b600080604083850312156100d057600080fd5b825160208401519092506001600160a01b03811681146100ef57600080fd5b809150509250929050565b60805160a05160c0516111a661013d6000396000818161013f01526104cb0152600081816101730152610a5201526000818160ca0152610bce01526111a66000f3fe6080604052600436106100915760003560e01c806389bfd38f1161005957806389bfd38f146101955780638d9a3e93146101b5578063bfb231d2146101d5578063ca7dd37514610274578063d38ea5bf1461029457600080fd5b80632769b96b1461009657806365e17c9d146100b85780636bfb0d01146101095780636cbbf4371461012d5780637fd6f15c14610161575b600080fd5b3480156100a257600080fd5b506100b66100b1366004610f5f565b6102a7565b005b3480156100c457600080fd5b506100ec7f000000000000000000000000000000000000000000000000000000000000000081565b6040516001600160a01b0390911681526020015b60405180910390f35b34801561011557600080fd5b5061011f60015481565b604051908152602001610100565b34801561013957600080fd5b506100ec7f000000000000000000000000000000000000000000000000000000000000000081565b34801561016d57600080fd5b5061011f7f000000000000000000000000000000000000000000000000000000000000000081565b3480156101a157600080fd5b506100b66101b0366004610f99565b610455565b3480156101c157600080fd5b506100b66101d0366004610fce565b6106cf565b3480156101e157600080fd5b506102386101f0366004610fce565b60026020819052600091825260409091208054600182015492820154600383015460049093015491936001600160a01b0390811693919290811690600160a01b900460ff1686565b604080519687526001600160a01b03958616602088015286019390935260608501919091529091166080830152151560a082015260c001610100565b34801561028057600080fd5b5061011f61028f366004610fce565b61097b565b6100b66102a2366004610fce565b610a8d565b6002600054036102d25760405162461bcd60e51b81526004016102c990610fe7565b60405180910390fd5b600260008181558381526020919091526040902082158015906102f757506001548311155b6103135760405162461bcd60e51b81526004016102c99061101e565b60048101546001600160a01b0316331461036f5760405162461bcd60e51b815260206004820152601c60248201527f4f6e6c792073656c6c65722063616e207570646174652070726963650000000060448201526064016102c9565b6004810154600160a01b900460ff161561039b5760405162461bcd60e51b81526004016102c99061104b565b600082116103f75760405162461bcd60e51b815260206004820152602360248201527f4e6577207072696365206d7573742062652067726561746572207468616e207a60448201526265726f60e81b60648201526084016102c9565b60038101805490839055604080518581526020810183905290810184905242606082015233907fa9e3575be5916fa4512224e62a2bdcf24025c2f83adf72463977251a944fa3ef9060800160405180910390a2505060016000555050565b6002600054036104775760405162461bcd60e51b81526004016102c990610fe7565b6002600055806104c95760405162461bcd60e51b815260206004820152601f60248201527f5072696365206d7573742062652067726561746572207468616e207a65726f0060448201526064016102c9565b7f00000000000000000000000000000000000000000000000000000000000000006001600160a01b0316836001600160a01b03161461054a5760405162461bcd60e51b815260206004820181905260248201527f4f6e6c7920417572655265616c457374617465204e46547320616c6c6f77656460448201526064016102c9565b6001805490600061055a8361108c565b90915550506040516323b872dd60e01b8152336004820152306024820152604481018390526001600160a01b038416906323b872dd90606401600060405180830381600087803b1580156105ad57600080fd5b505af11580156105c1573d6000803e3d6000fd5b50506040805160c081018252600180548083526001600160a01b03808a1660208086018281528688018c8152606088018c81523360808a01818152600060a08c018181529981526002968790528c90209a518b5593518a8a0180549189166001600160a01b031990921691909117905591519389019390935591516003880155516004909601805494511515600160a01b026001600160a81b031990951696909316959095179290921790559054925191945092507f68691bf1ff4da1d17e26d154d655adee05f2c30e99638bfce346224ffd490995916106bd9187908790429093845260208401929092526040830152606082015260800190565b60405180910390a35050600160005550565b6002600054036106f15760405162461bcd60e51b81526004016102c990610fe7565b6002600081815582815260209190915260409020811580159061071657506001548211155b6107325760405162461bcd60e51b81526004016102c99061101e565b60048101546001600160a01b0316331461078e5760405162461bcd60e51b815260206004820152601860248201527f4f6e6c792073656c6c65722063616e207769746864726177000000000000000060448201526064016102c9565b6004810154600160a01b900460ff16156107ba5760405162461bcd60e51b81526004016102c99061104b565b600181015460028201546040516323b872dd60e01b8152306004820152336024820152604481018290526001600160a01b039092169182906323b872dd90606401600060405180830381600087803b15801561081557600080fd5b505af1158015610829573d6000803e3d6000fd5b50506040516331a9108f60e11b8152600481018490523392506001600160a01b0385169150636352211e90602401602060405180830381865afa158015610874573d6000803e3d6000fd5b505050506040513d601f19601f8201168201806040525081019061089891906110a5565b6001600160a01b0316146108e05760405162461bcd60e51b815260206004820152600f60248201526e151c985b9cd9995c8819985a5b1959608a1b60448201526064016102c9565b60008481526002602081815260408084208481556001810180546001600160a01b03191690559283018490556003830193909355600490910180546001600160a81b031916905581518681529081018390524281830152905133916001600160a01b038516917f2b50bbeab304785e1247f1e22da0321897c428768d93e80ab1811e9baa9559019181900360600190a3505060016000555050565b6000818152600260208181526040808420815160c0810183528154815260018201546001600160a01b039081169482019490945293810154918401919091526003810154606084018190526004909101549182166080840152600160a01b90910460ff16151560a0830152610a445760405162461bcd60e51b815260206004820152602960248201527f4974656d20686173206e6f2076616c6964207072696365206f7220646f6573206044820152681b9bdd08195e1a5cdd60ba1b60648201526084016102c9565b606081015160006064610a777f0000000000000000000000000000000000000000000000000000000000000000846110c9565b610a8191906110e6565b91909101949350505050565b600260005403610aaf5760405162461bcd60e51b81526004016102c990610fe7565b60026000818155828152602091909152604090208115801590610ad457506001548211155b610af05760405162461bcd60e51b81526004016102c99061101e565b6004810154600160a01b900460ff1615610b1c5760405162461bcd60e51b81526004016102c99061104b565b6000610b278361097b565b905080341015610b8b5760405162461bcd60e51b815260206004820152602960248201527f496e73756666696369656e742045746865722073656e7420666f7220707269636044820152686520616e642066656560b81b60648201526084016102c9565b600482015460038301546040516001600160a01b039092169181156108fc0291906000818181858888f19350505050158015610bcb573d6000803e3d6000fd5b507f00000000000000000000000000000000000000000000000000000000000000006001600160a01b03166108fc836003015483610c099190611108565b6040518115909202916000818181858888f19350505050158015610c31573d6000803e3d6000fd5b5080341115610db6576000610c468234611108565b9050610c876040518060400160405280601f81526020017f436f6e74726163742042616c616e6365204265666f726520526566756e643a0081525047610ef5565b610cb76040518060400160405280600e81526020016d2932b33ab7321020b6b7bab73a1d60911b81525082610ef5565b604051600090339083908381818185875af1925050503d8060008114610cf9576040519150601f19603f3d011682016040523d82523d6000602084013e610cfe565b606091505b5050905080610d3f5760405162461bcd60e51b815260206004820152600d60248201526c1499599d5b990819985a5b1959609a1b60448201526064016102c9565b60408051808201909152601b81527f42757965722042616c616e636520416674657220526566756e643a00000000006020820152610d7e903331610ef5565b60405182815233907fd7dee2702d63ad89917b6a4da9981c90c4d24f8c2bdfd64c604ecae57d8d06519060200160405180910390a250505b6004828101805460ff60a01b1916600160a01b179055600183015460028401546040516323b872dd60e01b8152309381019390935233602484015260448301526001600160a01b0316906323b872dd90606401600060405180830381600087803b158015610e2357600080fd5b505af1158015610e37573d6000803e3d6000fd5b5050505060048201546001830154600284015460038501546040805188815260208101939093528201526060810184905242608082015233926001600160a01b039081169216907f3f4fae3bc18ee3badd6d5e9052511bc06ebfee6d818e72c138d08940e70492019060a00160405180910390a4505060009081526002602081905260408220828155600180820180546001600160a01b03191690559181018390556003810183905560040180546001600160a81b03191690559055565b610f3a8282604051602401610f0b92919061111b565b60408051601f198184030181529190526020810180516001600160e01b0316632d839cb360e21b179052610f3e565b5050565b80516a636f6e736f6c652e6c6f67602083016000808483855afa5050505050565b60008060408385031215610f7257600080fd5b50508035926020909101359150565b6001600160a01b0381168114610f9657600080fd5b50565b600080600060608486031215610fae57600080fd5b8335610fb981610f81565b95602085013595506040909401359392505050565b600060208284031215610fe057600080fd5b5035919050565b6020808252601f908201527f5265656e7472616e637947756172643a207265656e7472616e742063616c6c00604082015260600190565b602080825260139082015272125d195b48191bd95cc81b9bdd08195e1a5cdd606a1b604082015260600190565b602080825260119082015270125d195b48185b1c9958591e481cdbdb19607a1b604082015260600190565b634e487b7160e01b600052601160045260246000fd5b60006001820161109e5761109e611076565b5060010190565b6000602082840312156110b757600080fd5b81516110c281610f81565b9392505050565b80820281158282048414176110e0576110e0611076565b92915050565b60008261110357634e487b7160e01b600052601260045260246000fd5b500490565b818103818111156110e0576110e0611076565b604081526000835180604084015260005b81811015611149576020818701810151606086840101520161112c565b506000606082850101526060601f19601f830116840101915050826020830152939250505056fea264697066735822122097795b950437e66a968f17044d11bdfda247132b94f8d41419397f20a07b802064736f6c63430008110033",
  "linkReferences": {},
  "deployedLinkReferences": {}
}